:020000040800F2
:100000000050002029330008E5190008E71900080E
:10001000E9190008EB190008ED19000800000000BC
:10002000000000000000000000000000EF190008C0
:10003000F119000800000000F3190008F519000884
:100040007133000871330008713300087133000800
:1000500071330008713300087133000871330008F0
:1000600071330008713300087133000871330008E0
:1000700071330008713300087133000871330008D0
:10008000713300087133000871330008011A000849
:10009000111A000871330008713300087133000829
:1000A00071330008713300087133000871330008A0
:1000B0007133000871330008713300087133000890
:1000C0007133000871330008713300087133000880
:1000D0007133000871330008713300087133000870
:1000E000713300087133000871330008000000000C
:1000F0000000000000000000000000000000000000
:0C01000000000000000000005FF808F1A3
:10010C0010B5054C237833B9044B13B10448AFF345
:10011C0000800123237010BD60010020000000004E
:10012C00BC33000808B5034B1BB103490348AFF3BC
:10013C00008008BD0000000064010020BC330008F2
:10014C00034613F8012B002AFBD1181A013870470B
:10015C0011F0800F0CD001F07F01490128310144CE
:10016C005AB101228A72CB801B0C0B810020704784
:10017C00490101F50A710144F2E78A728B80F5E7B7
:10018C0070B582B00446036813F0130F6DD023686A
:10019C0013F0010F3FD0636843B1B3F5807F05D0F6
:1001AC00B3F5007F02D0B3F5407F63D1504BDB69D0
:1001BC0013F0805F63D14E4BDA6942F08052DA6102
:1001CC00DB6903F080530193019B0125494B1B68AC
:1001DC0013F4807F55D0464B1B6A13F4407311D037
:1001EC00626802F440729A420CD0414A136A23F4BA
:1001FC004070414901260E6000260E60106213F01B
:10020C00010F52D13A4A136A23F4407361680B43CD
:10021C001362002D5AD1236813F0020F11D0A3687A
:10022C0043B1B3F5804F05D0B3F5004F02D0B3F511
:10023C00404F50D12E4A536823F44043A1680B43DE
:10024C005360236813F0100F50D0E368B3F5800FA0
:10025C0001D0002B44D1264A536823F48003E16873
:10026C000B435360002002B070BD7C21234800F08A
:10027C00B5F88CE78221214800F0B0F896E700250C
:10028C00A4E71C4A136843F48073136002F0F6F879
:10029C000646184B1B6813F4807F9CD102F0EEF8D5
:1002AC00801B6428F5D90320DDE702F0E7F8064649
:1002BC000F4B1B6A13F0020FA4D102F0DFF8801B66
:1002CC0041F288339842F3D90320CCE7D36923F069
:1002DC008053D3619FE7C921084800F07FF8A9E754
:1002EC0040F22511054800F079F8B4E70020BAE790
:1002FC00001002400070004040044242E833000805
:10030C00FEE7000000B595B001220A924FF480334D
:10031C000B9300210C910E920222119212934FF426
:10032C00E01313930AA800F069FF48BB0F23059351
:10033C0002210691002307934FF4806208920993DF
:10034C0005A801F023FAF8B91023019300230493B4
:10035C0001A8FFF715FFD8B901F038FB0E4BA3FB32
:10036C000030800900F044FA042000F057FA002213
:10037C0011464FF0FF3000F0DFF915B05DF804FBCB
:10038C0098210648FFF7BCFFA6210448FFF7B8FFE9
:10039C00AD210248FFF7B4FFD34D621020340008A2
:1003AC0000B583B002F04CF8FFF7ACFF01F032FB64
:1003BC0002F0D6F9084B93E803000090ADF8041056
:1003CC00090C8DF806106846FFF7BAFE81B2684634
:1003DC0002F0C6FCF7E700BF2C34000870470000A1
:1003EC002DE9F04383B080460F46B64B984213D0AC
:1003FC0003F5806398420FD003F5806398420BD0CD
:10040C0003F58063984207D003F58063984203D0CC
:10041C00CD21AD48FFF7E2FF3B689AB212B11B0C3D
:10042C001B041BB1CE21A848FFF7D8FF7B68012B1A
:10043C001ED9112B1CD0022B1AD0122B18D0A34A68
:10044C00934215D002F58012934211D002F580121E
:10045C0093420DD0A2F5F812934209D002F5801206
:10046C00934205D002F58012934201D0032B03D1A5
:10047C004FF000094E46D8E0CF219348FFF7AEFF6E
:10048C00F6E7002B5ED0012B05D1FB68013B022B5C
:10049C0065D8D7F80C90FF2C00F296804046FF2CC4
:1004AC0000F29580B20003680F21914023EA01030A
:1004BC0009FA02F2134303607B6813F0805F00F0CB
:1004CC00B380834B9A6942F001029A619B6903F0F5
:1004DC0001030193019BB208911C7E4B53F8210040
:1004EC0006F0030399000F238B4020EA0300754BA1
:1004FC00984572D003F58063984500F0CD8003F5E4
:10050C008063984500F0CA8003F58063984562D0FB
:10051C00042363E0704A934214D00BD96F4A934280
:10052C0010D002F5803293420CD0A2F58012934287
:10053C00B1D107E0A2F58012934203D002F58032CC
:10054C009342A8D1BB68022B2DD8BB68002B38D0A6
:10055C00012B2ED0C8F814504FF008099BE7E52169
:10056C005948FFF73BFF94E7EC215748FFF736FF5C
:10057C008EE0FB68013B022B03D8FB6803F10809F2
:10058C0089E7F3215048FFF729FFF6E7FB68013BA9
:10059C00022B03D8FB6803F10C097CE7FA214A48CB
:1005AC00FFF71CFFF6E740F207114748FFF716FF6D
:1005BC00CBE7C8F810504FF008096CE74FF0000972
:1005CC0069E74FF0040966E708F1040067E7A6F154
:1005DC000802920067E7032300E000238B400343EB
:1005EC0002323C4941F822307B6813F4803F57D0EB
:1005FC003B4A1368234313607B6813F4003F55D0C8
:10060C00374A5368234353607B6813F4801F53D0DD
:10061C00334A9368234393607B6813F4001F61D0C3
:10062C002F4AD3681C43D46001360F2E60D80125A5
:10063C00B5403C682C40A542F6D1224B984513D0CE
:10064C0003F5806398450FD003F5806398450BD074
:10065C0003F58063984507D003F58063984503D074
:10066C00DD211948FFF7BAFE7B68122B8ED03FF6BE
:10067C0051AF022B3FF47DAF7FF603AF032B9DD020
:10068C00112B7FF408AFFB68013B022B3FF66CAFDC
:10069C00FB6803F10409FEE601239FE702239DE7B3
:1006AC000F4A136823EA04031360A5E70C4A536846
:1006BC0023EA04035360A7E7094A936823EA040377
:1006CC009360A9E7000801403434000800001110C1
:1006DC000010024000000140000021100000311009
:1006EC0000040140044AD36823EA0404D4609BE765
:1006FC0003B0BDE8F08300BF0004014010B5044610
:10070C00C31E042B0FD80A4AD36823F4E0631B04DE
:10071C001B0C240204F4E064234343F0BF6343F452
:10072C000033D36010BDA2210248FFF757FEEAE761
:10073C0000ED00E06C34000870B505460C4616461A
:10074C000F2A25D80F2C28D81B4BDB68C3F30223A8
:10075C00C3F10702042A28BF0422191D062921D936
:10076C00033B4FF0FF3101FA02F224EA02049C40F1
:10077C0001FA03F326EA03063443002D14DB2401AB
:10078C00E4B205F1604505F5614585F8004370BD9F
:10079C00BA210A48FFF722FED4E7BB210748FFF72E
:1007AC001DFED1E70023DCE705F00F052401E4B2C0
:1007BC00034B5C55EBE700BF00ED00E06C34000828
:1007CC0014ED00E010B5041E08DB04F01F026409F0
:1007DC0001239340044A42F8243010BDCE21034833
:1007EC00FFF7FCFDF1E700BF00E100E06C3400080E
:1007FC000138B0F1807F0AD2064B5860064AF021CE
:10080C0082F823100020986007221A60704701209C
:10081C00704700BF10E000E000ED00E010B50446AA
:10082C00042800D038B9042C0BD0094A136823F0E3
:10083C000403136010BD40F2D9110648FFF7CEFD3A
:10084C00F1E7034A136843F004031360F2E700BFB7
:10085C0010E000E06C340008704708B5FFF7FCFFAF
:10086C0008BD84B001A880E80E00002004B07047D9
:10087C00B0F8403043F43F43A0F8403000207047BC
:10088C00B0F8403023F474535B045B0CA0F8403098
:10089C00002070470020704784B038B505AC84E860
:1008AC000E000123A0F840300024A0F84040A0F82E
:1008BC004440A0F85040FFF7DBFF2046BDE838402D
:1008CC0004B0704710B4CB78032B0FD8DFE803F0DB
:1008DC00026D54600A7830F822309BB223F4EC435A
:1008EC0023F0700343F4007320F822300A7830F8B8
:1008FC00223023F0F0031B051B0D134343F400437C
:10090C0043F0800320F822308B7A002B40F0AF802C
:10091C004B78002B56D08A885208B0F850300C789F
:10092C0003EBC40300EB43035200C3F800240A7822
:10093C0030F8223013F0400F0BD030F8223023F077
:10094C00F0031B051B0D43F4004343F0C00320F8D8
:10095C0022300A7830F822309BB223F4E04323F0A3
:10096C00400383F0200343F4004343F0800320F85A
:10097C002230002010BC70470A7830F822309BB22D
:10098C0023F4EC4323F070039BB220F82230ADE744
:10099C000A7830F822309BB223F4EC4323F0700336
:1009AC0043F4C06320F82230A0E70A7830F82230F4
:1009BC009BB223F4EC4323F0700343F4806320F8E0
:1009CC00223093E78A885208B0F850300C7803EB49
:1009DC00C403043300EB43035200C3F80024B0F803
:1009EC0050300A7803EBC203063300EB43030C6967
:1009FC003E2C30D9C4F34F1214F01F0F01D1013A21
:100A0C0092B26FEAC2626FEA524292B2C3F8002409
:100A1C000A7830F8223013F4804F0BD030F82230A3
:100A2C0023F0F0031B051B0D43F4404343F08003FC
:100A3C0020F822300A7830F822309BB223F480431D
:100A4C0023F0700383F4405343F4004343F08003DA
:100A5C0020F822308DE7C4F34F0214F0010F01D0BF
:100A6C00013292B2920292B2C3F80024D0E70A7813
:100A7C0030F8223023F4F8731B051B0D43F40143AB
:100A8C0043F0800320F82230CA885208B0F8503066
:100A9C000C7803EBC40300EB43035200C3F80024AF
:100AAC000A895208B0F850300C7803EBC4030433B5
:100ABC0000EB43035200C3F800244B78002B4BD1BE
:100ACC000A7830F8223013F4804F0BD030F82230F3
:100ADC0023F0F0031B051B0D43F4404343F080034C
:100AEC0020F822300A7830F8223013F0400F0BD067
:100AFC0030F8223023F0F0031B051B0D43F40043A8
:100B0C0043F0C00320F822300A7830F8223023F06A
:100B1C00F0031B051B0D43F4004343F0C00320F806
:100B2C0022300A7830F822309BB223F4804323F031
:100B3C00700383F4405348F28004234320F822309E
:100B4C000A7830F822309BB223F4E04323F04003C0
:100B5C00234320F822300CE70A7830F8223013F4C3
:100B6C00804F0BD030F8223023F0F0031B051B0D07
:100B7C0043F4404343F0800320F822300A7830F8E5
:100B8C00223013F0400F0BD030F8223023F0F0035A
:100B9C001B051B0D43F4004343F0C00320F8223027
:100BAC000A7830F8223023F0F0031B051B0D43F4B8
:100BBC00404343F0800320F822300B7830F8232098
:100BCC0092B222F4E04222F0400248F28004224326
:100BDC0020F823200A7830F822309BB223F480438B
:100BEC0023F07003234320F82230C2E68B7A002BCB
:100BFC0044D14B780BB30A7830F8223013F0400F05
:100C0C000BD030F8223023F0F0031B051B0D43F4FE
:100C1C00004343F0C00320F822300A7830F8223029
:100C2C009BB223F4E04323F0400343F4004343F02E
:100C3C00800320F82230002070470A7830F82230E8
:100C4C0013F4804F0BD030F8223023F0F0031B0547
:100C5C001B0D43F4404343F0800320F822300A7804
:100C6C0030F822309BB223F4804323F0700343F41A
:100C7C00004343F0800320F82230DCE710B44B78BB
:100C8C00002B4BD10A7830F8223013F4804F0BD064
:100C9C0030F8223023F0F0031B051B0D43F44043C6
:100CAC0043F0800320F822300A7830F8223013F019
:100CBC00400F0BD030F8223023F0F0031B051B0D36
:100CCC0043F4004343F0C00320F822300A7830F894
:100CDC00223023F0F0031B051B0D43F4004343F0BB
:100CEC00C00320F822300B7830F8232092B222F483
:100CFC00804222F0700248F28004224320F8232024
:100D0C000A7830F822309BB223F4E04323F04003FE
:100D1C00234320F82230002010BC70470A7830F8AA
:100D2C00223013F4804F0BD030F8223023F0F00334
:100D3C001B051B0D43F4404343F0800320F8223085
:100D4C000A7830F8223013F0400F0BD030F82230F4
:100D5C0023F0F0031B051B0D43F4004343F0C003C9
:100D6C0020F822300A7830F8223023F0F0031B05EB
:100D7C001B0D43F4404343F0800320F822300B78E2
:100D8C0030F8232092B222F4E04222F0400248F2E2
:100D9C008004224320F823200A7830F822309BB2BA
:100DAC0023F4804323F07003234320F82230B2E76E
:100DBC000A788AB14B7813BB30F822309BB223F4FB
:100DCC00804323F0700383F4805343F4004343F0D7
:100DDC00800320F8223010E030F822309BB223F44C
:100DEC00804323F0400383F4805383F0100343F4D7
:100DFC00004343F0800320F822300020704730F885
:100E0C0022309BB223F4E04323F0400383F0100321
:100E1C0043F4004343F0800320F82230EDE74B7895
:100E2C001BB30A7830F8223013F0400F0BD030F897
:100E3C00223023F0F0031B051B0D43F4004343F059
:100E4C00C00320F822300A7830F822309BB223F409
:100E5C00E04323F0400383F0300343F4004343F0BA
:100E6C00800320F82230002070470A7830F82230B6
:100E7C0013F4804F0BD030F8223023F0F0031B0515
:100E8C001B0D43F4404343F0800320F822300A78D2
:100E9C0030F822309BB223F4804323F0700383F4A8
:100EAC00405343F4004343F0800320F82230DAE748
:100EBC0011B98023A0F84C300020704700207047F7
:100ECC0000207047B0F84400704700207047013391
:100EDC005B1000EB420202F5806263B110B40C7837
:100EEC00487844EA002422F8044B0231013B002BE1
:100EFC00F5D110BC70477047F8B58A694D78012D53
:100F0C0034D00B69934280F0EA80D21A8A618A7AD3
:100F1C00002A40F0F480B0F850200C7802EBC402A8
:100F2C00063200EB42023E2B40F2DD80C3F34F143D
:100F3C0013F01F0F01D1013CA4B26FEAC4646FEA35
:100F4C005444A4B2C2F800440A7830F822309BB260
:100F5C0023F4804323F0700383F4405343F40043A1
:100F6C0043F0800320F822300020F8BD0F6997422F
:100F7C0025D2D21B8A610E4604468B7A1BB30B78A2
:100F8C0030F8232012F0400F69D0002D37D1B0F883
:100F9C00502002EBC303063300EB43033E2F22D950
:100FAC00C7F34F1217F01F0F01D1013A92B26FEA3B
:100FBC00C2626FEA524292B2C3F8002428E00023C6
:100FCC008B611746D7E7BBB28A884969FFF77FFF69
:100FDC00B4F85030327803EBC203023304EB430312
:100FEC00C3F800742AE0C7F34F0217F0010F01D0C9
:100FFC00013292B2920292B2C3F8002408E0B0F827
:10100C00502002EBC303023300EB4303C3F800741C
:10101C003289BBB271692046FFF759FF7378002BF8
:10102C004DD1327834F8223023F0F0031B051B0D20
:10103C0043F4004343F0C00324F82230327834F8F0
:10104C0022309BB223F4E04323F0400383F03003BF
:10105C0043F4004343F0800324F8223084E71DBBA3
:10106C00B0F8502002EBC303023300EB43033E2FD6
:10107C000ED9C7F34F1217F01F0F01D1013A92B2DC
:10108C006FEAC2626FEA524292B2C3F8002414E0D3
:10109C00C7F34F0217F0010F01D0013292B2920246
:1010AC0092B2C3F8002408E0B0F8502002EBC3035E
:1010BC00023300EB4303C3F80074F288A9E7012B59
:1010CC00BCD1327834F8223023F0F0031B051B0D11
:1010DC0043F4404343F0800324F82230AEE700236E
:1010EC008B61134613E7C3F34F0413F0010F01D0C8
:1010FC000134A4B2A402A4B2C2F8004424E7BDB9DE
:10110C00B0F850200C7802EBC402023200EB420221
:10111C003E2B28D9C3F34F1413F01F0F01D1013C00
:10112C00A4B26FEAC4646FEA5444A4B2C2F8004497
:10113C004A7882BBB0F850200C7802EBC40206321D
:10114C0000EB42023E2B1AD9C3F34F1413F01F0FBE
:10115C0001D1013CA4B26FEAC4646FEA5444A4B256
:10116C00C2F80044F0E6C3F34F0413F0010F01D0B2
:10117C000134A4B2A402A4B2C2F80044D8E7C3F369
:10118C004F0413F0010F01D00134A4B2A402A4B295
:10119C00C2F80044D8E6012A7FF4D6AEB0F850204D
:1011AC000C7802EBC402023200EB4202C2F80034AB
:1011BC00CAE601335B1000EB420202F5806204E0E8
:1011CC00106821F8020B013B0432002BF8D1704758
:1011DC0082B0084B1B68084AA2FB03235B0A00FB86
:1011EC0003F0019000BF019B5A1E0192002BF9D114
:1011FC0002B0704708000020D34D621070B582B069
:10120C00044678B3236813B113F00F0F30D0236862
:10121C0013F0010F46D063682BB1B3F5803F02D0B9
:10122C00B3F5A02F2AD1AC4B5B6803F00C03042B55
:10123C002FD0A94B5B6803F00C03082B24D06368F8
:10124C00B3F5803F5BD0002B6FD103F1804303F5E6
:10125C0004331A6822F480321A601A6822F480224D
:10126C001A6051E04FF4B8719C48FFF7B7F8C9E722
:10127C0040F271119948FFF7B1F8C8E740F27711C5
:10128C009648FFF7ABF8CEE7934B5B6813F4803FBF
:10129C00D5D0914B1B6813F4003F03D06368002B2F
:1012AC0000F02D82236813F0020F00F08A8023696E
:1012BC00012B63D863691F2B66D8874B5B6813F0CF
:1012CC000C0F6CD0844B5B6803F00C03082B61D0C3
:1012DC002369002B00F09A80814B01221A6001F0E7
:1012EC00CDF805467C4B1B6813F0020F40F085804F
:1012FC0001F0C4F8401B0228F4D9032002E2764A1C
:10130C00136843F480331360636843B301F0B6F899
:10131C000546714B1B6813F4003FC3D101F0AEF8C6
:10132C00401B6428F5D90320ECE1B3F5A02F09D0BC
:10133C00694B1A6822F480321A601A6822F48022EF
:10134C001A60E1E703F18043A3F53C331A6842F4D9
:10135C0080221A601A6842F480321A60D4E701F0D5
:10136C008DF805465C4B1B6813F4003F9AD001F0D6
:10137C0085F8401B6428F5D90320C3E140F2AB117A
:10138C005648FFF72BF895E74FF4D6715348FFF703
:10139C0025F892E7504B5B6813F4803F98D14E4B85
:1013AC001B6813F0020F04D02369012B01D001201C
:1013BC00A8E1494A136823F0F803616943EAC103C1
:1013CC001360236813F0080F3BD0A369012B2FD8AF
:1013DC00A369002B66D0434B01221A6001F04EF832
:1013EC0005463D4B5B6A13F0020F27D101F046F81E
:1013FC00401B0228F5D9032084E1374A136823F0F7
:10140C00F803616943EAC1031360DAE7344B002245
:10141C001A6001F033F805462F4B1B6813F0020FCE
:10142C00CFD001F02BF8401B0228F5D9032069E13D
:10143C004FF4F6712948FEF7D1FFC9E70120FFF7F9
:10144C00C7FE236813F0040F00F0A580E368012B9E
:10145C0001D9052B38D1204BDB6913F0805F39D1D2
:10146C001D4BDA6942F08052DA61DB6903F080537C
:10147C000193019B01251C4B1B6813F4807F35D015
:10148C00E368012B46D0002B5CD103F1804303F5BC
:10149C0004331A6A22F001021A621A6A22F0040258
:1014AC001A623CE00F4B00221A6000F0E7FF054681
:1014BC00094B5B6A13F0020FC3D000F0DFFF401B37
:1014CC000228F5D903201DE140F21B210348FEF749
:1014DC0085FFC0E70025CEE700100240A4340008C9
:1014EC00000042428004424200700040874A136868
:1014FC0043F48073136000F0C1FF0646834B1B68F6
:10150C0013F4807FBCD100F0B9FF801B6428F5D99F
:10151C000320F7E07E4A136A43F001031362E36889
:10152C0033B300F0ABFF0646794B1B6A13F0020F86
:10153C002FD100F0A3FF801B41F288339842F3D9DE
:10154C000320DFE0052B09D0714B1A6A22F001024F
:10155C001A621A6A22F004021A62E0E76C4B1A6AE9
:10156C0042F004021A621A6A42F001021A62D6E7C9
:10157C0000F084FF0646664B1B6A13F0020F08D07E
:10158C0000F07CFF801B41F288339842F3D9032092
:10159C00B8E0002D53D1E369022B56D8E369002B38
:1015AC0000F0AF805A4A526802F00C02082A00F090
:1015BC00AB80022B40F08F80236A13B1B3F5803FD0
:1015CC0049D1636A4BB3B3F5802F26D0B3F5002F06
:1015DC0023D0B3F5402F20D0B3F5801F1DD0B3F529
:1015EC00A01F1AD0B3F5C01F17D0B3F5E01F14D04D
:1015FC00B3F5001F11D0B3F5101F0ED0B3F5201F9B
:10160C000BD0B3F5301F08D0B3F5401F05D0B3F5A0
:10161C00501F02D0B3F5601F23D13E4B00221A603D
:10162C0000F02CFF05463A4B1B6813F0007F1ED0D0
:10163C0000F024FF401B0228F5D9032062E0344A55
:10164C00D36923F08053D361A5E740F2B921324826
:10165C00FEF7C4FEA2E740F2C2212F48FEF7BEFE01
:10166C00AFE740F2C3212C48FEF7B8FED5E7236A5A
:10167C00B3F5803F1AD026494B6823F47413226AC1
:10168C00606A024313434B60224B01221A6000F044
:10169C00F5FE04461E4B1B6813F0007F19D100F0B9
:1016AC00EDFE001B0228F5D903202BE0A36813B133
:1016BC00B3F5003F07D1164A536823F40033A168F1
:1016CC000B435360D7E740F2D9211348FEF786FE4F
:1016DC00F1E7002016E00F4B00221A6000F0CEFE5E
:1016EC0004460B4B1B6813F0007F06D000F0C6FEBF
:1016FC00001B0228F5D9032004E0002002E00120A1
:10170C0000E0002002B070BD0120FBE7007000403B
:10171C000010024060004242A434000810B487B0AC
:10172C00164C94E80F000DF1180C0CE90F00238AED
:10173C00ADF80430124B5B6803F00C02082A1AD186
:10174C00C3F38342624412F8102C13F4803F05D18A
:10175C000C4800FB02F007B010BC7047084B5B68EC
:10176C00C3F34043634413F8143C074800FB02F0F6
:10177C00B0FBF3F0EFE70448EDE700BFD43300080B
:10178C000010024000093D0000127A0070B50D46B1
:10179C000446C0B1236813F00F0F1AD0022D1ED8C7
:1017AC00854B1B6803F00703AB421ED2824A1368B9
:1017BC0023F007032B431360136803F00703AB42BA
:1017CC0013D0012070BD40F22E317C48FEF706FE8E
:1017DC00E0E740F22F317948FEF700FEDEE74FF4E8
:1017EC004C717648FEF7FAFDDAE7236813F0020F26
:1017FC0018D0A3687BB1802B0DD0902B0BD0A02BD5
:10180C0009D0B02B07D0C02B05D0D02B03D0E02BA8
:10181C0001D0F02B34D16A4A536823F0F003A1684D
:10182C000B435360236813F0010F61D06368022BE4
:10183C002CD86368012B2FD0022B34D0604A12684D
:10184C0012F0020F00F0B6805D494A6822F00302E4
:10185C0013434B6000F012FE06466368012B29D03F
:10186C00022B36D0564B5B6813F00C0F40D000F0B7
:10187C0005FE801B41F288339842F3D90320A1E77F
:10188C0040F249314D48FEF7A9FDC4E74FF45471BD
:10189C004A48FEF7A3FDCCE7494A126812F4003F10
:1018AC00D2D101208EE7464A126812F0007FCBD1CC
:1018BC00012087E7424B5B6803F00C03042B17D025
:1018CC0000F0DCFD801B41F288339842F2D90320F2
:1018DC0078E73B4B5B6803F00C03082B08D000F057
:1018EC00CDFD801B41F288339842F2D9032069E781
:1018FC00314B1B6803F00703AB420CD92E4A13681B
:10190C0023F007032B431360136803F00703AB4268
:10191C0001D0012056E7236813F0040F14D0E368BC
:10192C005BB1B3F5806F08D0B3F5A06F05D0B3F5FC
:10193C00C06F02D0B3F5E06F30D1214A536823F465
:10194C00E063E1680B435360236813F0080F15D074
:10195C0023695BB1B3F5806F08D0B3F5A06F05D0E8
:10196C00B3F5C06F02D0B3F5E06F1DD1144A5368C4
:10197C0023F46053216943EAC1035360FFF7CEFEA1
:10198C000F4B5B68C3F303130E4AD35CD8400E4B6A
:10199C001860002000F02EFD002013E74FF4697151
:1019AC000648FEF71BFDC8E740F2AB310348FEF7D3
:1019BC0015FDDBE7012005E700200240A4340008F8
:1019CC00001002401435000808000020014B186874
:1019DC00704700BF080000207047FEE7FEE7FEE7F7
:1019EC00FEE770477047704708B500F03BFDFEF707
:1019FC0034FF08BD08B5024800F0F7FB08BD00BF76
:101A0C00A403002008B5024800F0EFFB08BD00BF9E
:101A1C00A403002010B588B01F4B9A6942F0100245
:101A2C009A619A6902F010020092009A9A6942F047
:101A3C0020029A619A6902F020020192019A9A6935
:101A4C0042F004029A619A6902F004020292029A2C
:101A5C009A6942F008029A619B6903F008030393A8
:101A6C00039B4FF4005304930324059404A90B48DF
:101A7C00FEF7B6FC48F2FF730493059404A90848DA
:101A8C00FEF7AEFC4FF6FF730493059404A90548CA
:101A9C00FEF7A6FC08B010BD00100240001001407B
:101AAC0000080140000C014000B583B0204B9A693E
:101ABC0042F001029A619B6903F001030193019BBF
:101ACC000320FEF71BFE002211466FF00B00FEF701
:101ADC0033FE002211466FF00A00FEF72DFE0022A5
:101AEC0011466FF00900FEF727FE002211466FF039
:101AFC000400FEF721FE002211466FF00300FEF7F2
:101B0C001BFE002211466FF00100FEF715FE0022AD
:101B1C0011464FF0FF30FEF70FFE064A536823F0D4
:101B2C00E06343F00073536003B05DF804FB00BF47
:101B3C00001002400000014000286FD0F0B587B0C3
:101B4C0004460268364B9A4203D09F213548FEF773
:101B5C0045FC94F82934C3B1032384F82934206854
:101B6C00FEF78EFE254655F8107B6E460FCD0FC640
:101B7C002B683360231D0ECB3846FEF772FE002116
:101B8C002068FEF787FE002316E084F828342046F0
:101B9C0000F0A0FCE0E704EB4312012182F82910CD
:101BAC0082F828309386002182F82B109163D16340
:101BBC009A1C5201A15001330E2BECD9002312E0D8
:101BCC0004EB4312002182F8291282F82832938602
:101BDC0082F82B12C2F83812C2F83C1203F112022E
:101BEC005201A15001330E2BEAD9254655F8107B32
:101BFC006E460FCD0FC62B683360231D0ECB3846B7
:101C0C00FEF74AFE002584F82450012384F8293479
:101C1C002068FFF755F9284607B0F0BD0120704742
:101C2C00005C0040DC34000890F82834012B10D004
:101C3C0010B50446012180F8281400F090FD2068AE
:101C4C00FFF73CF92068FEF713FE002084F8280407
:101C5C0010BD0220704790F82834012B0DD010B520
:101C6C000446012380F8283480F824100068FFF71C
:101C7C001FF9002084F8280410BD0220704738B5E5
:101C8C004DB2002D1CDB01F07F04640104F50A74D5
:101C9C00044401F07F012170ED0F65702261E37047
:101CAC0090F82834012B11D00546012380F82834F4
:101CBC0021460068FEF706FE002085F8280438BD92
:101CCC0001F07F04640128340444E2E70220F6E7C3
:101CDC004AB2002A1BDB01F07F035B0103F50A7398
:101CEC00034401F07F011970D20F5A7090F8282428
:101CFC00012A12D010B50446012280F82824194676
:101D0C000068FEF773FF002084F8280410BD01F072
:101D1C007F035B0128330344E3E70220704770B56F
:101D2C0001F07F056C0104F50A7101440444C4F808
:101D3C003C2205F112025201861883500023736075
:101D4C0084F8293284F8285225B10068FFF7D4F8BA
:101D5C00002070BD0068FFF7CFF8F9E701F00F0124
:101D6C00123100EB41118888704770B501F07F0586
:101D7C006C0104F1280101440444E263AA1C5201E1
:101D8C008618835000237360012384F8293084F86B
:101D9C00285025B10068FFF7AFF8002070BD00682F
:101DAC00FFF7AAF8F9E770B582B004460023ADF846
:101DBC000630ADF804302068B0F844309BB2ADF872
:101DCC00063013F4004F00F00D82BDF8065015F0EC
:101DDC000F0540F0C280BDF8063013F0100F50D044
:101DEC0003889BB2ADF80430BDF8043013F4006FD7
:101DFC0079D1BDF8043013F4004FDCD0038823F004
:101E0C0070031B051B0D03802068B0F8503094F84C
:101E1C00282203EBC203063300EB4303D3F8003450
:101E2C00C3F30903C4F84432002B7CD100212046B3
:101E3C0000F080FB2368B3F85020063203EB42031A
:101E4C00D4F838123E297CD9C1F34F1211F01F0F70
:101E5C0001D1013A92B26FEAC2626FEA524292B277
:101E6C00C3F80024226813889BB223F4804323F028
:101E7C00700383F4405343F4004343F08003138016
:101E8C0099E703889BB223F4E14323F070039BB2E0
:101E9C0003802268B2F8503094F8281003EBC10389
:101EAC00023302EB4303D3F80034C3F30903636436
:101EBC00E26B1344E3630021204600F045FB94F8E9
:101ECC002430002B3FF477AF236C002B7FF473AFDF
:101EDC0094F82430226843F08003A2F84C3000239D
:101EEC0084F8243067E7B0F8503094F8282203EBDC
:101EFC00C203063300EB4303D3F80034C3F30903E6
:101F0C00C4F84432B4F82C2204F22C41FFF751F9F6
:101F1C002268138823F070031B051B0D13802046C9
:101F2C0000F000FB47E7B4F82C22D4F83C12FFF782
:101F3C0040F9D4F84422D4F83C321344C4F83C326F
:101F4C0074E7C1F34F0211F0010F01D0013292B2CC
:101F5C00920292B2C3F8002484E730F825309BB289
:101F6C00ADF80430BDF8043013F4004F35D1BDF892
:101F7C00043013F0800F3FF41EAF226832F8253086
:101F8C009BB223F4E14323F070039BB222F825307B
:101F9C0004EB451393F83230002B40F0B2802068EC
:101FAC00B0F8503004EB451292F8282003EBC20332
:101FBC00023300EB4303D3F80034C3F30903AA1C28
:101FCC0004EB42125360002B00F0C68004EB451169
:101FDC008A8DC96BFEF77BFFBEE030F8253023F00D
:101FEC0070031B051B0D20F8253004EB451393F8EB
:101FFC003232D3B92068B0F8503004EB451292F865
:10200C00282203EBC203063300EB4303B3F800644E
:10201C00C6F3090686B304EB45113346B1F82C22FE
:10202C00D1F83C12FFF7C5F826E0206804EB451305
:10203C0093F8282230F8223013F4804F42D0B0F8B5
:10204C00503003EBC203023300EB4303B3F80064DC
:10205C00C6F3090666BB226804EB451393F82812F5
:10206C0032F8213023F0F0031B051B0D43F4004321
:10207C0043F0C00322F8213005F112035B01E11893
:10208C004A6832444A6004EB4511D1F83C22324490
:10209C00C1F83C22E3581BB1D1F838128E4228D239
:1020AC0004EB451393F82812204600F043FA5EE740
:1020BC0004EB45113346B1F82E22D1F83C12FFF750
:1020CC0078F8C8E7B0F8503003EBC203063300EBE6
:1020DC004303B3F80064C6F30906002EBBD004EB2F
:1020EC0045113346B1F83022D1F83C12FFF761F8B4
:1020FC00B1E704EB451191F828122046FFF70FFECB
:10210C0035E7206804EB451393F8282030F822308B
:10211C0013F0400F46D0B0F8503003EBC20302333B
:10212C0000EB4303D3F80034C3F30903AA1C04EBFC
:10213C00421253607BBB226804EB451393F82810C2
:10214C0032F8213023F0F0031B051B0D43F4404300
:10215C0043F0800322F821302268B2F8503004EBAF
:10216C00451090F8281003EBC103023302EB430334
:10217C00D3F80024C2F30902AB1C5B01E1184A60DE
:10218C00C16B0A44C263E35823BB90F82810204665
:10219C0000F0DAF90FE604EB4511CA8DC96BFEF7B6
:1021AC0096FEC8E7B0F8503003EBC203063300EBE1
:1021BC004303D3F80034C3F30903AA1C04EB421203
:1021CC005360002BB7D004EB45110A8EC96BFEF798
:1021DC007EFEB0E704EB451595F828102046FFF776
:1021EC00C4FDE8E5002002B070BD10B504460068DF
:1021FC00FEF768FE10F4004F45D12068FEF762FE32
:10220C0010F4806F43D12068FEF75CFE10F4804F11
:10221C0008D02268B2F844309BB223F480439BB2BE
:10222C00A2F844302068FEF74DFE10F4005F08D091
:10223C002268B2F844309BB223F400539BB2A2F84C
:10224C0044302068FEF73EFE10F4805F30D12068E9
:10225C00FEF738FE10F4006F49D12068FEF732FE0D
:10226C0010F4007F64D12068FEF72CFE10F4807F00
:10227C0008D02268B2F844309BB223F480739BB22E
:10228C00A2F8443010BD2046FFF78DFDB5E722685B
:10229C00B2F844309BB223F480639BB2A2F8443072
:1022AC00204600F060F900212046FFF7D4FCAAE795
:1022BC002268B2F840309BB223F004039BB2A2F820
:1022CC0040302268B2F840309BB223F008039BB236
:1022DC00A2F84030204600F063F92268B2F844308E
:1022EC009BB223F480539BB2A2F84430AFE7226830
:1022FC00B2F8403043F00803A2F840302268B2F83C
:10230C0044309BB223F400639BB2A2F844302268A1
:10231C00B2F8403043F00403A2F840302068FEF7D6
:10232C00D1FD10F4805F98D1204600F029F994E794
:10233C002268B2F844309BB223F400739BB2A2F82B
:10234C004430204600F009F98DE738B54AB2002A2E
:10235C001BDB4B0103F50A73034401249C7001F051
:10236C007F051D70D20F5A7090F82824A24218D005
:10237C000446012280F8282419460068FEF718FD4F
:10238C004DB1002084F8280438BD01F07F035B01B7
:10239C0028330344E1E704F22C412068FEF795FD55
:1023AC00EFE70220F0E710B54AB2002A1ADB4B0126
:1023BC0003F50A73034400249C7001F07F0119702B
:1023CC00D20F5A7090F82824012A11D00446012209
:1023DC0080F8282419460068FEF721FD002084F8B7
:1023EC00280410BD01F07F035B0128330344E2E7AE
:1023FC000220F6E710B504460E4B18784FF47A73AA
:10240C00B3FBF0F30C4A1068B0FBF3F0FEF7F0F9F5
:10241C0068B90F2C01D901200AE0002221464FF0A7
:10242C00FF30FEF789F9054B1C60002000E001200D
:10243C0010BD00BF00000020080000200400002098
:10244C0008B5074A136843F0100313600320FEF726
:10245C0055F90020FFF7CEFFFFF726FB002008BD43
:10246C0000200240034A1168034B1B780B44136095
:10247C00704700BFA003002000000020014B18682B
:10248C00704700BFA00300200F4B1A6842F00102F6
:10249C001A6059680D4A0A405A601A6822F0847210
:1024AC0022F480321A601A6822F480221A605A6868
:1024BC0022F4FE025A604FF41F029A60044B4FF054
:1024CC0000629A60704700BF001002400000FFF8E5
:1024DC0000ED00E00268124B9A4200D0704700B544
:1024EC0083B003F5DA33DA6942F40002DA61DB69AE
:1024FC0003F400030193019B002211461320FEF705
:10250C001BF91320FEF75EF9002211461420FEF78A
:10251C0013F91420FEF756F903B05DF804FB00BF65
:10252C00005C004008B500F22C41D0F85C0400F0CF
:10253C0064FC08BD08B500EB4113D3F83C22D0F87D
:10254C005C0400F087FC08BD08B500EB4113DA6BA6
:10255C00D0F85C0400F0B3FC08BD08B5D0F85C04FE
:10256C0000F036FD08BD10B504460121D0F85C041E
:10257C0000F01CFDD4F85C0400F0F9FC10BD000068
:10258C0010B50446D0F85C0400F013FDA36923B128
:10259C00024A136943F00603136110BD00ED00E01D
:1025AC0008B5D0F85C0400F00DFD08BD10B504466C
:1025BC001F48C0F85C44C4F820021E4B036008237B
:1025CC004360022383600023C3608361C3610362A1
:1025DC00FFF7B2FA30BB182300221146D4F82002C0
:1025EC00FDF7B6FD582300228021D4F82002FDF718
:1025FC00AFFDC02300228121D4F82002FDF7A8FDF5
:10260C004FF4887300220121D4F82002FDF7A0FDBD
:10261C004FF4807300228221D4F82002FDF798FD3C
:10262C00002010BD4FF499710348FDF769FED2E705
:10263C00A4030020005C00402435000808B5D0F845
:10264C002002FFF7F1FA18B1022803D0022008BDCE
:10265C000020FCE70120FAE710B51C461346224681
:10266C00D0F82002FFF70BFB18B1022803D0022090
:10267C0010BD0020FCE70120FAE708B5D0F82002D5
:10268C00FFF726FB18B1022803D0022008BD00205A
:10269C00FCE70120FAE708B5D0F82002FFF755FE59
:1026AC0018B1022803D0022008BD0020FCE701204D
:1026BC00FAE708B5D0F82002FFF775FE18B102282A
:1026CC0003D0022008BD0020FCE70120FAE7D0F877
:1026DC00203211F0800F06D101F07F0103EB411184
:1026EC0091F82A02704701F07F0103EB411191F838
:1026FC002A00704708B5D0F82002FFF7ACFA18B1E1
:10270C00022803D0022008BD0020FCE70120FAE7D4
:10271C0008B5D0F82002FFF728FB18B1022803D027
:10272C00022008BD0020FCE70120FAE708B5D0F82C
:10273C002002FFF7F4FA18B1022803D0022008BDDA
:10274C000020FCE70120FAE708B5D0F82002FFF7DB
:10275C0005FB08BD004870477C010020704770479E
:10276C0010B5094C00220949204600F00FFB08491E
:10277C00204600F022FB0749204600F089FD204648
:10278C0000F022FB10BD00BF040800201C0000203C
:10279C00500000200C00002010B513460222C0F897
:1027AC00F4218361C3610A460021FFF7B1FF0020C9
:1027BC0010BD08B513460A460021FFF7A9FF0020FB
:1027CC0008BD10B513460322C0F8F421C0F8083137
:1027DC00C0F80C310A460021FFF7A8FF002010BDFD
:1027EC0008B513460A460021FFF7A0FF002008BDDC
:1027FC0008B50423C0F8F43100231A461946FFF734
:10280C0087FF002008BD08B50523C0F8F43100236C
:10281C001A461946FFF78AFF002008BD002302E084
:10282C000133DBB201300278002AF9D11846704727
:10283C004B88012B0BD110B50446C0F80432D0F8EC
:10284C0014329B6898472046FFF7D2FF10BD7047A3
:10285C000B7803704B7843708B78CA7803EB0223A8
:10286C0043800B794A7903EB022383808B79CA79F5
:10287C0003EB0223C380704710B504468021FFF799
:10288C000AFF00212046FFF706FF10BD30B583B0CC
:10289C0004460D464A88130A013B062B00F2818040
:1028AC00DFE803F00413277F7F637000D0F8103249
:1028BC001B680DF10601007C9847BDF8062012B18B
:1028CC00EB88002B71D103B030BD037C43B9D0F839
:1028DC0014329B6A0DF10600984702234370ECE713
:1028EC00D0F81432DB6A0DF10600984702234370CE
:1028FC00E3E7D2B2052A34D8DFE802F0030B131B4E
:10290C00232BD0F810325B680DF10601007C984740
:10291C00D3E7D0F810329B680DF10601007C984784
:10292C00CBE7D0F81032DB680DF10601007C98473C
:10293C00C3E7D0F810321B690DF10601007C9847F3
:10294C00BBE7D0F810325B690DF10601007C9847AB
:10295C00B3E7D0F810329B690DF10601007C984763
:10296C00ABE72946FFF788FFADE7037C33B9D0F816
:10297C0014325B6B0DF1060098479EE72946FFF772
:10298C007BFFA0E7037C43B9D0F814321B6B0DF12D
:10299C0006009847072343708FE72946FFF76CFF23
:1029AC0091E72946FFF768FF8DE79A4228BF1A4640
:1029BC00ADF8062001462046FFF7EEFE83E738B55A
:1029CC0004468B88E3B9CB88D3B98D7805F07F05A5
:1029DC0090F8FC31032B0CD080F8FE512946FFF700
:1029EC0089FE2046FFF704FF35B1022384F8FC3141
:1029FC0009E0FFF741FF06E0012384F8FC3102E017
:102A0C002046FFF739FF38BD38B504460D468978A6
:102A1C00254B1970012909D890F8FC31022B09D0EB
:102A2C00032B1CD02946FFF727FF02E02946FFF7AE
:102A3C0023FF38BD81B14160032380F8FC3100F0E5
:102A4C00C8F9022803D02046FFF7D2FEF1E7294649
:102A5C002046FFF711FFECE7FFF7CAFEE9E789B163
:102A6C00436899421DD0D9B200F0C0F90E4B1978C9
:102A7C006160204600F0ADF902280DD02046FFF72A
:102A8C00B7FED6E7022380F8FC31416000F0AEF9C6
:102A9C002046FFF7ADFECCE729462046FFF7ECFEBB
:102AAC00C7E7FFF7A5FEC4E79C03002008B5CB8859
:102ABC00012B08D190F8FC31022B07D0032B0DD041
:102ACC00FFF7DAFE01E0FFF7D7FE08BD0146002351
:102ADC0041F8083F0122FFF75FFEF6E70122011DD6
:102AEC00FFF75AFEF1E708B590F8FC31023B012BD9
:102AFC000CD80123C360D0F804320BB10323C3609C
:102B0C00022200F10C01FFF747FE08BDFFF7B4FEEF
:102B1C00FBE710B5044690F8FC31023B012B0DD8B5
:102B2C004B88012B09D10023C0F80432D0F81432A1
:102B3C009B6898472046FFF75BFE10BDFFF79CFE95
:102B4C00FBE708B54B78092B1CD8DFE803F012180B
:102B5C001B151B09051B0F0CFFF798FE002008BD69
:102B6C00FFF72DFFFAE7FFF74FFFF7E7FFF79EFFA1
:102B7C00F4E7FFF7B8FFF1E7FFF75AFEEEE7FFF7D0
:102B8C00C8FFEBE7FFF778FEE8E738B504460D46DB
:102B9C0090F8FC31032B11D10B79012B0BD8D0F809
:102BAC0014329B689847EB880BB1002038BD204647
:102BBC00FFF71EFEF9E7FFF75FFEF6E7FFF75CFE97
:102BCC00F3E738B505460C468A880B7803F06003AA
:102BDC00202B05D1D0F814329B689847002038BDC3
:102BEC00D1B26378012B25D0002B47D0032BF5D124
:102BFC0090F8FC31022B05D0032B0AD02146FFF7AD
:102C0C003BFEEBE70029E9D08029E7D0FFF743FD35
:102C1C00E4E7638823B919B1802901D0FFF73BFDA4
:102C2C00D5F814329B682146284698472846FFF76A
:102C3C00DFFDD3E790F8FC31022B05D0032B0AD033
:102C4C002146FFF719FEC9E70029C7D08029C5D056
:102C5C00FFF721FDC2E76388002BBFD111F07F0F76
:102C6C0003D12846FFF7C4FDB8E7FFF722FDD5F8DE
:102C7C0014329B68214628469847F2E790F8FC31BD
:102C8C00022B05D0032B09D02146FFF7F5FDA5E754
:102C9C0011F07F0FA2D0FFF7FEFC9FE712F0800F20
:102CAC0011D101F07F04103400EB041404342846D5
:102CBC00FFF70DFD70B10123236002222146284647
:102CCC00FFF76AFD8AE701F07F04013400EB04147E
:102CDC000434ECE700232360EFE7D0B170B50D4668
:102CEC0016460446FFF79AFD0130400080B2308052
:102CFC00287003236B70022307E001345A1CD2B2F4
:102D0C00E9540233DBB20021A95421780029F4D113
:102D1C0070BD7047002070470020704710B5054CFF
:102D2C000146204600F0C3FA204600F0DDFA0020F0
:102D3C0010BD00BF0408002010B5064C0022064947
:102D4C00204600F0ACFA0549204600F0B0FA00200D
:102D5C0010BD00BF04080020100E0020280A00201F
:102D6C00094BD3F81832D3F814320BB10120704749
:102D7C0010B50A460146044C204600F090FA204655
:102D8C0000F09BFA10BD00BF0408002098B108B5F4
:102D9C000346D0F8140210B10020C3F8140209B194
:102DAC00C3F810121846012380F8FC310270FFF7AB
:102DBC00FDFB002008BD0220704719B1C0F81412A9
:102DCC00002070470220704708B5FFF737FC002041
:102DDC0008BD08B5D0F8143233B11B68984708B950
:102DEC00002008BD0220FCE70220FAE708B5D0F865
:102DFC0014325B689847002008BD38B5044600F5CE
:102E0C0002752846FFF724FD0123C4F8F431B4F809
:102E1C000E32C4F8F83194F8081201F01F03012B9C
:102E2C000ED03BB1022B10D001F080012046FFF7F1
:102E3C0032FC03E029462046FFF783FE002038BD14
:102E4C0029462046FFF7A1FEF8E729462046FFF762
:102E5C00B8FEF3E710B5044621BB1346D0F8F421B5
:102E6C00032A01D0002010BDD0F80C11D0F810218D
:102E7C0091420CD8D0F814321B6923B190F8FC2184
:102E8C00032A00D198472046FFF7B2FCEAE7891ADB
:102E9C00C0F80C118A4228BF0A4692B21946FFF7B5
:102EAC009FFCDFE70A46D0F814329B69002BD9D07F
:102EBC0090F8FC110329D5D111469847D2E710B5EB
:102ECC000446002946D11346D0F8F421022A05D035
:102EDC0094F80032012B39D0002010BDC169026A70
:102EEC00914219D88169B1FBF2F302FB13132BB990
:102EFC008A4203D8D0F8F83199421AD3D4F8143254
:102F0C00DB682BB194F8FC21032A01D120469847A9
:102F1C002046FFF778FCDBE78A1AC26192B21946A9
:102F2C00FFF747FC00231A4619462046FFF7FEFB25
:102F3C00CEE700221146FFF73CFC0021C4F8F81143
:102F4C000B460A462046FFF7F1FBC1E7002384F845
:102F5C000032C1E70A46D0F814325B69002BBBD0B3
:102F6C0090F8FC110329B7D111469847B4E738B54E
:102F7C000446402300221146FFF76EFB4025C4F89F
:102F8C0010512B46002280212046FFF765FB25625D
:102F9C00012384F8FC31D4F818322BB1D4F8143254
:102FAC005B68217920469847002038BD01740020C9
:102FBC00704790F8FC3180F8FD31042380F8FC3127
:102FCC000020704790F8FD3180F8FC3100207047EC
:102FDC0008B590F8FC31032B01D0002008BDD0F8C7
:102FEC001432DB69002BF8D09847F6E712230B80DC
:102FFC00004870473800002004230B8000487047BD
:10300C004C00002008B50A4628B105490548FFF7D1
:10301C0064FE034808BD02490248FFF75EFEF8E76C
:10302C00F81100206435000810B5044C0A462146FE
:10303C000348FFF752FE204610BD00BFF8110020D8
:10304C005035000808B50A4628B105490548FFF770
:10305C0044FE034808BD02490248FFF73EFEF8E76C
:10306C00F81100207C35000808B50A4628B105493E
:10307C000548FFF732FE034808BD02490248FFF736
:10308C002CFEF8E7F81100203435000808B50A4684
:10309C0028B105490548FFF720FE034808BD024941
:1030AC000248FFF71AFEF8E7F81100204035000837
:1030BC00D0F818321BB10020C3F81402704702205C
:1030CC00704710B5D0F81842D0F81C325BB194F8A8
:1030DC000002FF2807D09B6894F8012221469847EC
:1030EC00FF2384F80032002010BD0000432303802E
:1030FC000048704788000020432303800048704735
:10310C00CC00002043230380004870471C010020A2
:10311C000A230380004870471001002038B504468C
:10312C00D0F81852FFF710FBC5F80C02D4F818327F
:10313C004BB1D4F81C32DB6805F50371D5F80402E9
:10314C009847002038BD0220FCE7000070B505460A
:10315C000C46D0F818620B7813F0600225D0202AA8
:10316C0007D1CA883AB9D0F81C329B68002248783B
:10317C009847002070BD13F0800F0BD0D0F81C3294
:10318C009B68314660789847E28831462846FFF7BD
:10319C0003FBEEE74B7886F80032CB8886F80132D9
:1031AC00CA883146FFF70DFBE3E74B780A2BE0D1D9
:1031BC0001220249FFF7F0FADBE700BF9D03002074
:1031CC0010B504468121FFF758FA01212046FFF77C
:1031DC0054FA82212046FFF750FAD4F8183253B132
:1031EC00D4F81C325B689847D4F81802FFF7B6FA8B
:1031FC000023C4F81832002010BD38B50446037CF7
:10320C0073BB4FF4007302228121FFF725FA4FF4B0
:10321C000073022201212046FFF71EFA0823032225
:10322C0082212046FFF718FA4FF40770FFF792FA45
:10323C000546C4F8180248B3D4F81C321B689847EA
:10324C000023C5F81432C5F81832237CA3B14023EF
:10325C00D5F8042201212046FFF768FA002038BD7A
:10326C00402302228121FFF7F7F94023022201219A
:10327C002046FFF7F1F9D1E74FF40073D5F804229B
:10328C0001212046FFF752FA0020E8E70120E6E78B
:10329C0019B1C0F81C120020704702207047D0F8FA
:1032AC001832C3F80812C3F8102200207047D0F867
:1032BC001832C3F8041200207047D0F818228AB1D3
:1032CC0008B5D2F814320BB1012008BD0123C2F8A5
:1032DC001432B2F81032D2F808228121FFF718FA12
:1032EC000020F2E702207047D0F818229AB108B5F6
:1032FC00037C3BB14023D2F804220121FFF716FADC
:10330C00002008BD4FF40073D2F804220121FFF70E
:10331C000DFA0020F5E7022070470000002103E0C1
:10332C000B4B5B58435004310A480B4B42189A42E2
:10333C00F6D30A4A02E0002342F8043B084B9A42B7
:10334C00F9D3FFF7A1F800F00FF8FDF729F8704753
:10335C00943500080000002060010020600100206E
:10336C00F8130020FEE7000070B500250C4E0D4C44
:10337C00A41BA410A54209D100F01AF800250A4E8E
:10338C000A4CA41BA410A54205D170BD56F82530DB
:10339C0098470135EEE756F8253098470135F2E7A6
:1033AC008C3500088C3500088C35000890350008E9
:1033BC00F8B500BFF8BC08BC9E467047F8B500BF16
:0833CC00F8BC08BC9E467047E6
:1033D40002030405060708090A0B0C0D0E0F101052
:1033E40001020000447269766572732F53544D33A1
:1033F40032463178785F48414C5F44726976657231
:103404002F5372632F73746D3332663178785F682B
:10341400616C5F7263635F65782E63005372632F20
:103424006D61696E2E630000746573740D0A00008B
:10343400447269766572732F53544D333246317832
:10344400785F48414C5F4472697665722F537263AA
:103454002F73746D3332663178785F68616C5F679F
:1034640070696F2E63000000447269766572732F71
:1034740053544D3332463178785F48414C5F44723F
:10348400697665722F5372632F73746D33326631AC
:1034940078785F68616C5F636F727465782E63001F
:1034A400447269766572732F53544D3332463178C2
:1034B400785F48414C5F4472697665722F5372633A
:1034C4002F73746D3332663178785F68616C5F7224
:1034D40063632E6300000000447269766572732F83
:1034E40053544D3332463178785F48414C5F4472CF
:1034F400697665722F5372632F73746D333266313C
:1035040078785F68616C5F7063642E63000000000C
:10351400000000000000000001020304060708097F
:103524005372632F757362645F636F6E662E6300FC
:1035340043444320436F6E6669670000434443205D
:10354400496E7465726661636500000053544D6989
:1035540063726F656C656374726F6E696373000088
:1035640053544D3332205669727475616C20436F25
:103574006D506F72740000003030303030303030B5
:0835840030303141000000006D
:04358C003101000801
:043590000D01000821
:10359400010000001000000000A24A04452D0008AC
:1035A400212D0008252D0008292D0008F92F0008D9
:1035B400053000083530000811300008513000088B
:1035C4007530000899300008120100020202004020
:1035D40083044057000201020301000004030904AC
:1035E40007320008CD3100085931000800000000FE
:1035F400CF300008BD300008293100080000000069
:10360400000000000000000005310008F930000847
:10361400113100081D31000809024300020100C0F5
:103624003209040000010202010005240010010512
:103634002401000104240202052406000107058276
:103644000308001009040100020A00000007050134
:103654000240000007058102400000000902430007
:10366400020100C032090400000102020100052425
:1036740000100105240100010424020205240600AF
:10368400010705820308001009040100020A000072
:103694000007050102000200070581020002000084
:1036A4000A06000200000040010000000907430070
:1036B400020104C0320904000001020201000524D1
:1036C400001001052401000104240202052406005F
:1036D40001070582030800FF09040100020A000033
:1036E40000070501024000000705810240000000B8
:040000050800332993
:00000001FF
